:100000000C94E2020C940A030C940A030C940A0365
:100010000C940A030C940A030C940A030C940A032C
:100020000C940A030C940A030C940A030C940A031C
:100030000C940A030C940A030C940A030C940A030C
:100040000C94290E0C940A030C940A030C940A03D2
:100050000C940A030C940A030C940A030C940A03EC
:100060000C94EC0E0C940A0300000000003E5B4F61
:100070005B3E3E6B4F6B3E1C3E7C3E1C183C7E3C08
:10008000181C577D571C1C5E7F5E1C00183C180016
:10009000FFE7C3E7FF0018241800FFE7DBE7FF30A6
:1000A000483A060E2629792926407F050507407F14
:1000B00005253F5A3CE73C5A7F3E1C1C08081C1C87
:1000C0003E7F14227F22145F5F005F5F06097F017D
:1000D0007F006689956A606060606094A2FFA29468
:1000E00008047E040810207E201008082A1C080836
:1000F0001C2A08081E101010100C1E0C1E0C303884
:100100003E3830060E3E0E06000000000000005F84
:1001100000000007000700147F147F14242A7F2AA0
:100120001223130864623649562050000807030062
:10013000001C2241000041221C002A1C7F1C2A08AE
:10014000083E080800807030000808080808000011
:1001500060600020100804023E5149453E00427F85
:10016000400072494949462141494D331814127FD4
:100170001027454545393C4A494931412111090774
:100180003649494936464949291E000014000000F5
:1001900040340000000814224114141414140041C7
:1001A00022140802015909063E415D594E7C121184
:1001B000127C7F494949363E414141227F414141BC
:1001C0003E7F494949417F090909013E4141517337
:1001D0007F0808087F00417F41002040413F017FA8
:1001E000081422417F404040407F021C027F7F0470
:1001F00008107F3E4141413E7F090909063E4151B9
:10020000215E7F09192946264949493203017F01A8
:10021000033F4040403F1F2040201F3F4038403FA9
:10022000631408146303047804036159494D4300BF
:100230007F4141410204081020004141417F0402F6
:10024000010204404040404000030708002054548D
:1002500078407F284444383844444428384444286B
:100260007F385454541800087E090218A4A49C78BE
:100270007F0804047800447D40002040403D007F1A
:100280001028440000417F40007C047804787C08FA
:100290000404783844444438FC18242418182424CE
:1002A00018FC7C08040408485454542404043F44B3
:1002B000243C4040207C1C2040201C3C4030403CE2
:1002C00044281028444C9090907C4464544C440042
:1002D00008364100000077000000413608000201A6
:1002E0000204023C2623263C1EA1A161123A404092
:1002F000207A38545455592155557941225454780F
:1003000042215554784020545579400C1E527212A7
:100310003955555559395454545939555454580030
:1003200000457C410002457D420001457C407D1234
:1003300011127DF0282528F07C5455450020545496
:100340007C547C0A097F4932494949323A44444441
:100350003A324A4848303A4141217A3A424020787C
:10036000009DA0A07D3D4242423D3D4040403D3C7D
:1003700024FF2424487E4943662B2FFC2F2BFF09A2
:1003800029F620C0887E0903205454794100004496
:100390007D413048484A32384040227A007A0A0A81
:1003A000727D0D19317D2629292F282629292926F4
:1003B00030484D4020380808080808080808382F39
:1003C00010C8ACBA2F102834FA00007B00000814C3
:1003D0002A142222142A14085500550055AA55AA99
:1003E00055AAFF55FF55FF000000FF00101010FF39
:1003F00000141414FF001010FF00FF1010F010F094
:10040000141414FC001414F700FF0000FF00FF1484
:1004100014F404FC141417101F10101F101F1414D0
:10042000141F00101010F0000000001F101010101A
:100430001F10101010F010000000FF10101010100E
:1004400010101010FF10000000FF140000FF00FF4C
:1004500000001F10170000FC04F4141417101714E8
:1004600014F404F40000FF00F7141414141414140A
:10047000F700F7141414171410101F101F1414147D
:10048000F4141010F010F000001F101F0000001FE7
:1004900014000000FC140000F010F01010FF10FF1A
:1004A000141414FF141010101F00000000F010FFAF
:1004B000FFFFFFFFF0F0F0F0F0FFFFFF0000000093
:1004C00000FFFF0F0F0F0F0F3844443844FC4A4A17
:1004D0004A347E02020606027E027E0263554941CC
:1004E000633844443C04407E201E2006027E020203
:1004F00099A5E7A5991C2A492A1C4C7201724C3017
:100500004A4D4D303048784830BC625A463D3E49ED
:100510004949007E0101017E2A2A2A2A2A44445F91
:10052000444440514A444040444A51400000FF0185
:1005300003E080FF000008086B6B08361236243693
:10054000060F090F060000181800000010100030F8
:1005500040FF0101001F01011E00191D1712003C80
:100560003C3C3C00000000000000000800020100CC
:10057000000304070000000000000000000000006D
:10058000240027002A0000000000250028002B007E
:1005900000000000230026002900040404040404D1
:1005A0000404020202020202030303030303010222
:1005B00004081020408001020408102001020408F1
:1005C0001020481911241FBECFEFD8E0DEBFCDBFE9
:1005D00011E0A0E0B1E0E8E1F9E302C005900D927E
:1005E000A03DB107D9F724E0A0EDB1E001C01D9214
:1005F000A73EB207E1F712E0C2EED2E004C02197B5
:10060000FE010E947F1CC13ED107C9F70E940B1456
:100610000C948A1C0C940000CF92DF92EF92FF9210
:100620000F931F93CF93DF936C017A018B01C0E08E
:10063000D0E0CE15DF0589F0D8016D918D01D6018E
:10064000ED91FC910190F081E02DC6010995892B77
:1006500011F47E0102C02196ECCFC701DF91CF914A
:100660001F910F91FF90EF90DF90CF90089583300E
:1006700081F028F4813099F08230A1F0089587301C
:10068000A9F08830B9F08430D1F4809180008F7D5A
:1006900003C0809180008F7780938000089584B597
:1006A0008F7702C084B58F7D84BD08958091B0009E
:1006B0008F7703C08091B0008F7D8093B000089544
:1006C0003FB7F89480911C0290911D02A0911E02E8
:1006D000B0911F0226B5A89B05C02F3F19F00196C7
:1006E000A11DB11D3FBFBA2FA92F982F8827820FB8
:1006F000911DA11DB11DBC01CD0143E0660F771F07
:10070000881F991F4A95D1F708950F931F93CF9390
:10071000DF93DC0155968C915597823071F08330D0
:1007200009F1813009F08CC01496ED91FC91159778
:10073000E41BF50BE21BF30B20C01496ED91FC912A
:100740001597CF01861B970BBC0161507109169656
:10075000ED91FC911797CF01841B950BAC01421BC7
:10076000530B6EC01696ED91FC911797CF01861B27
:10077000970BBC0161507109FA0177FD1BC11696F8
:100780008D919C911797681779070CF013C1F7FFAB
:1007900004C02E0F3F1FE0E0F0E014968D919C9175
:1007A0001597AF01420F531F841795071CF49C0146
:1007B0002E1B3F0B121613060CF0FCC0CB0177FD6D
:1007C000079643E0959587954A95E1F79695982F7A
:1007D000882797958795E80FF91FEA5CFD4F6770AA
:1007E000772781E090E001C0880F6A95EAF7482FEB
:1007F0000130110541F088F00230110509F0DAC02E
:100800002E0F3F1F15C02E0F3F1FE217F30709F4ED
:10081000D1C08081842B8193F8CF80952E0F3F1F0C
:10082000E217F30709F4C6C0908198239193F8CF9B
:10083000E217F30709F4BEC0808184278193F8CFC3
:1008400077FDB8C014968D919C911597681779071C
:100850000CF0B0C057FF04C0240F351F40E050E03B
:1008600016968D919C911797FA01E20FF31F8E1740
:100870009F071CF49C01241B350B121613060CF069
:1008800099C0A22F842F86958695869590E8899F9A
:10089000600D711D1124FB01EA5CFD4F4770A9F149
:1008A00098E0941B492F50E0EA01CF5DDE4F88812C
:1008B000291790F4421B51092FEF30E002C0359503
:1008C00027954A95E2F782230130110541F068F03F
:1008D0000230110589F06EC00130110519F4208134
:1008E000822B0CC00130110520F4809520818223D9
:1008F00005C00230110531F4208182278083A917B9
:1009000008F458C0A91BE058FF4FA83048F1023046
:10091000110559F4EF018A2F988190959883C0585A
:10092000DF4F88508830C0F730C081E001301105BA
:1009300009F080E08195EF019A2F8883C058DF4F3E
:1009400098509830D0F788EF8A0F869586958695CF
:1009500090E8899FE00DF11D1124E058FF4FA7702A
:10096000AA2341F1B0E0A75EBE4F8C910130110582
:1009700029F038F002301105D1F01CC09081892B8C
:1009800018C080959081892314C088EF8A0F8695BE
:100990008695869590E8899FE00DF11D1124E05819
:1009A000FF4FA77039F0B0E0A75EBE4F8C919081E9
:1009B00089278083DF91CF911F910F9108950F9325
:1009C0001F93CF93DF93DC01FB0155968C915597D4
:1009D000823081F0833019F1813051F514968D9178
:1009E0009C911597BC01641B750BAB0141505109DB
:1009F000BF0181C014966D917C911597CB018E1B20
:100A00009F0BFC0116968D919C911797BC01641B5E
:100A1000750BAB0141505109E21BF30B09C016964F
:100A20006D917C9117976E1B7F0B621B730B63C0DC
:100A300057FD1CC116968D919C9117974817590721
:100A40000CF014C1F7FF04C02E0F3F1FE0E0F0E0F0
:100A500014968D919C911597BF01620F731F861795
:100A600097071CF49C012E1B3F0B121613060CF06B
:100A7000FDC0CA0157FD079663E0959587956A9575
:100A8000E1F79695982F882797958795E80FF91F96
:100A9000EA5CFD4F4770552781E090E001C0880F68
:100AA0004A95EAF7482F0130110541F088F00230ED
:100AB000110509F0DBC02E0F3F1F15C02E0F3F1F81
:100AC000E217F30709F4D2C08081842B8193F8CF19
:100AD00080952E0F3F1FE217F30709F4C7C09081DE
:100AE00098239193F8CFE217F30709F4BFC08081F0
:100AF00084278193F8CF57FDB9C014968D919C91AE
:100B00001597481759070CF0B1C077FF04C0260F9E
:100B1000371F60E070E016968D919C911797FB014E
:100B2000E20FF31F8E179F071CF49C01261B370B47
:100B3000121613060CF09AC0A22F862F8695869562
:100B4000869590E8899F400D511D1124FA01EA5CB9
:100B5000FD4F6770A9F198E0961B492F50E0EA011C
:100B6000CF5DDE4F8881291790F4421B51092FEF8A
:100B700030E002C0359527954A95E2F7822301308F
:100B8000110541F068F00230110589F06FC00130A5
:100B9000110519F42081822B0CC00130110520F4BD
:100BA00080952081822305C00230110531F4208117
:100BB00082278083A91708F459C0A91BE058FF4F6A
:100BC000A83048F10230110559F4EF018A2F9881BD
:100BD00090959883C058DF4F88508830C0F731C057
:100BE00081E00130110509F080E08195EF019A2F35
:100BF0008883C058DF4F98509830D0F788EF8A0F1D
:100C000086958695869560E8869FE00DF11D1124F6
:100C1000E058FF4FA770AA2349F1B0E0A75EBE4F8E
:100C20008C910130110529F038F002301105D9F00E
:100C30001DC09081892B03C080959081892380837A
:100C400015C088EF8A0F86958695869570E8879FF0
:100C5000E00DF11D1124E058FF4FA77039F0B0E00E
:100C6000A75EBE4F8C9190818927E9CFDF91CF910C
:100C70001F910F910895FC0177FD9AC080859185A1
:100C8000681779070CF094C057FD92C08285938550
:100C9000481759070CF08CC08589823009F07CC058
:100CA00084819581DC01A61BB70BBD0161507109E0
:100CB00086819781FC01E41BF50BAF01415051097E
:100CC0000AC0813041F484819581841B950BAB016E
:100CD000BC01615071092130310529F008F1223041
:100CE0003105E1F10895FA0157FD3796A3E0F59536
:100CF000E795AA95E1F7F695FE2FEE27F795E7958C
:100D00006E0F7F1FFB01EA5CFD4F4770552781E0A6
:100D100090E001C0880F4A95EAF79081892B3AC08C
:100D2000FA0157FD379623E0F595E7952A95E1F707
:100D3000F695FE2FEE27F795E7956E0F7F1FFB01C7
:100D4000EA5CFD4F4770552781E090E001C0880FB5
:100D50004A95EAF78095908189231CC0FA0157FDD6
:100D6000379683E0F595E7958A95E1F7F695FE2F9E
:100D7000EE27F795E7956E0F7F1FFB01EA5CFD4FAD
:100D80004770552781E090E001C0880F4A95EAF747
:100D90009081892780830895833009F092CF8681DE
:100DA0009781861B970BBA01AC014150510993CF33
:100DB00008950895FC016370658B84819581268177
:100DC0003781613039F0633029F09187808733872C
:100DD00022870895318720879387828708952F92ED
:100DE0003F924F925F926F927F928F929F92AF92BB
:100DF000BF92CF92DF92EF92FF920F931F93CF9308
:100E0000DF93CDB7DEB76C970FB6F894DEBF0FBE99
:100E1000CDBF9C8F8B8F5B011A011F830E8337011F
:100E2000C982DC0158964D915C9159974115510545
:100E300009F0E5C018968D919C911997681779076C
:100E40000CF0CAC11A968D919C911B9728163906F1
:100E50000CF0C2C18C2C912CFB0136E0C39EE00D3E
:100E6000F11D1124FB87EA871E161F060CF0B4C182
:100E7000C40133E0880F991F3A95E1F79D878C876D
:100E8000820D931D181619060CF0A6C157968C9169
:100E9000811103C0203B08F02F5FAB8DBC8DED911D
:100EA000FC9111970284F385E02DCD012A8F0995DD
:100EB0002A8DB5E02B9F90011124F5013596FF870F
:100EC000EE87BB82AA822501A9014A195B09598BC9
:100ED000488BC10108969B8B8A8BE889F989E40DC0
:100EE000F51DE859FF4F9491988761013D822C824E
:100EF000A885A0FF13C0AB8DBC8DED91FC91B9818D
:100F0000B13031F40484F585E02D2E813F8116C087
:100F10000684F785E02DEE80FF801AC0EE81FF8108
:100F20006E167F06F1F0AB8DBC8DED91FC91B98111
:100F3000B13051F40484F585E02D9301A601B2018E
:100F40008B8D9C8D09950DC00684F785E02D73016E
:100F5000840194014C815D816A817B818B8D9C8DA4
:100F60000995E885E695E887FFEFCF1ADF0A2C811F
:100F70003D81280D391D3D832C834A895B89C41628
:100F8000D50609F0B5CF5FEF451A550A8A819B81D6
:100F9000880D991D9B838A83AE85BF854A165B06A3
:100FA00009F09BCFEE81FF816E167F0609F4F2C037
:100FB000EB8DFC8DA081B181F981F13079F4B5011F
:100FC0006B5F7F4F5096ED91FC915197830128E024
:100FD00030E0A1018B8D9C8D0995DCC06A857B85F5
:100FE000681979091E96ED91FC911F9773010C8584
:100FF0001D859401A1018B8D9C8D0995CBC0FA01B3
:1010000034969491329765917491291BCB01B7E086
:101010002B9F800D911D1124FA01259134913B8B5A
:101020002A8BFC01459154915B834A83FC013296E3
:10103000C490319654915E87329614913196D49033
:101040008981823058F0612E012E000C7708AD2D79
:101050000D2C000CBB0BB987A88704C01986188615
:10106000612C712CAB8DBC8DED91FC91119702849C
:10107000F385E02DCD010995B9818B2E912C689CCB
:10108000C001699C900D789C900D1124FC01EA0D23
:10109000FB1DFD87EC871C82712C612CE12F110F49
:1010A000FF0B95012E0F3F1F3B872A87AC0CB11C0D
:1010B000A5014E0F5F1F5F8B4E8BC1018D0D911DE2
:1010C000D7FC9A95998F888F4E85641608F062C078
:1010D000862D90E048855985480F591F489D9001FD
:1010E000499D300D589D300D1124D901A20DB31D1D
:1010F000B98BA88BAA84BB844C845D84DC80BA85C0
:10110000DB1AE88DF98DE80FF91FFD8BEC8B8D2D27
:101110008A0D2E893F89A216B306B9F1877061F452
:101120008A819B810196EA89FB89AA81BB81EA0FAA
:10113000FB1F74909B838A8377FE20C0AB8DBC8D90
:10114000ED91FC91B981B13061F40484F585E02D15
:101150002E813F814C895D89B5018B8D9C8D0995D0
:101160000DC00684F785E02DEE80FF808401940198
:1011700048895989B2018B8D9C8D0995770CEFEFC9
:10118000AE1ABE0A480C591CC2CF3C813C0D3C83B0
:1011900063949ACFAB8DBC8DED91FC91119706882D
:1011A000F789E02DCD016C960FB6F894DEBF0FBE27
:1011B000CDBFDF91CF911F910F91FF90EF90DF9006
:1011C000CF90BF90AF909F908F907F906F905F90E7
:1011D0004F903F902F9009946C960FB6F894DEBF15
:1011E0000FBECDBFDF91CF911F910F91FF90EF9078
:1011F000DF90CF90BF90AF909F908F907F906F9037
:101200005F904F903F902F900895AF92BF92CF92F2
:10121000EF92FF920F931F93CF93DF93EC01262F52
:10122000888D998D009709F040C06A3059F41D8669
:101230001C862C898E859F8538E0239F800D911D0B
:10124000112441C06D3009F4AAC08E898823C1F0F1
:101250003C898C859D8546E0349F800D911D11242D
:1012600048855985481759075CF41D861C868E856C
:101270009F8548E0349F800D911D11249F878E87A4
:10128000EA88FB88088919894E855F856C857D858C
:10129000CC88CE010E94EF062C898C859D8536E096
:1012A000239F800D911D112442C06A3079F41D8660
:1012B0001C862C89FC013696E4918E859F852E9F95
:1012C000800D911D11249F878E8769C06D3009F4B0
:1012D00066C0FC0134963491631708F460C03196FF
:1012E000E491E61708F45BC0FC013296A590B49037
:1012F000462F50E0431B510937E0349FB001359F22
:10130000700D1124A60EB71EF50132963491319658
:10131000E491332311F0E1110DC0F5013496E4910D
:101320002C898C859D85E29F800D911D11249D87C0
:101330008C8735C0F501359644915E89552311F1AE
:101340006C89E32FF0E0E40FF11D47FDFA956E9FE5
:10135000D0016F9FB00D11244C855D854A0F5B1F36
:10136000E885F985E417F5076CF41D861C86FC01F9
:101370003696E4918E859F856E9F800D911D112478
:101380009F878E87EA88FB88088919894E855F8543
:101390006C857D85CC88CE010E94EF06BECF81E0B2
:1013A00090E0DF91CF911F910F91FF90EF90CF9040
:1013B000BF90AF9008956F927F928F929F92AF925D
:1013C000BF92CF92DF92EF92FF920F931F93CF9332
:1013D000DF93EC014B015A0169013801E881F98181
:1013E0000284F385E02D0995E881F9810288F3896B
:1013F000E02D87019601A501B401CE010995E88190
:10140000F981A501460D571D415051090288F38904
:10141000E02D9601B401CE010995E881F98100889B
:10142000F189E02D9301A501B401CE010995E88170
:10143000F981C80CD91CB601615071090088F18985
:10144000E02D9301A501CE010995E881F981068877
:10145000F789E02DCE01DF91CF911F910F91FF9081
:10146000EF90DF90CF90BF90AF909F908F907F9044
:101470006F900994CF92DF92EF92FF920F931F9398
:10148000CF93DF9300D000D000D0CDB7DEB76C0192
:10149000DC01ED91FC916217730789F404171507BD
:1014A0002CF4942F852FA801092F182F041B150B3E
:1014B00098012F5F3F4F048CF58DE02D12C040172F
:1014C000510709F5261737072CF4962F872FB901F6
:1014D000292F382F261B370B2F5F3F4F068CF78D98
:1014E000E02D8701C601099526960FB6F894DEBF58
:1014F0000FBECDBFDF91CF911F910F91FF90EF9065
:10150000DF90CF9008950284F385E02D2D833E83F4
:101510004B835C8369837A830995D601ED91FC91B5
:101520000488F589E02D2D813E814B815C816981A4
:101530007A81C6010995D601ED91FC910688F7895B
:10154000E02DC60126960FB6F894DEBF0FBECDBFC4
:10155000DF91CF911F910F91FF90EF90DF90CF908F
:101560000994EF92FF920F931F93DC01ED91FC9190
:1015700011971A960D911C911B9718962D913C91DD
:10158000199700A0F1A1E02D7B0140E050E060E060
:1015900070E009951F910F91FF90EF9008954F9281
:1015A0005F926F927F928F929F92AF92BF92CF92F3
:1015B000DF92EF92FF920F931F93CF93DF9300D0B0
:1015C000CDB7DEB76C015A0139014801DC01ED915C
:1015D000FC910284F385E02D69837A830995698102
:1015E000462E7A81572E640C751CD601ED91FC9124
:1015F000461457046CF40088F189E02D87019401AA
:10160000A501B201C6010995BFEF4B1A5B0AEDCFE8
:101610000688F789E02DC6010F900F90DF91CF91DA
:101620001F910F91FF90EF90DF90CF90BF90AF9000
:101630009F908F907F906F905F904F900994AF92A2
:10164000BF92CF92DF92EF92FF920F931F93CF93AF
:10165000DF9300D000D0CDB7DEB75C016901DC01BB
:10166000ED91FC910284F385E02D4B835C836983CB
:101670007A830995D501ED91FC9169817A819B016D
:101680002C0D3D1D215031090488F589E02D78018C
:101690004B815C818A01C5010995D501ED91FC91D1
:1016A0000688F789E02DC5010F900F900F900F90DD
:1016B000DF91CF911F910F91FF90EF90DF90CF902E
:1016C000BF90AF900994AF92BF92CF92DF92EF920A
:1016D000FF920F931F93CF93DF9300D000D0CDB72D
:1016E000DEB75C016901DC01ED91FC910284F385B8
:1016F000E02D4B835C8369837A830995D501ED9155
:10170000FC914B815C81C40ED51EB1E0CB1AD1088F
:101710000488F589E02D7801860169817A819B0131
:10172000C5010995D501ED91FC910688F789E02D59
:10173000C5010F900F900F900F90DF91CF911F91E7
:101740000F91FF90EF90DF90CF90BF90AF900994F2
:101750000895EF92FF920F931F93DC01ED91FC919E
:1017600000A0F1A1E02D09951F910F91FF90EF903E
:1017700008950F931F93DC01ED91FC91068CF78D7A
:10178000E02D09951F910F9108950F931F93DC0190
:10179000ED91FC91048CF58DE02D09951F910F9131
:1017A0000895DC01ED91FC910084F185E02D099410
:1017B00008952F923F924F925F926F927F928F92F5
:1017C0009F92AF92BF92CF92DF92EF92FF920F93D0
:1017D0001F93CF93DF9300D01F92CDB7DEB74C019C
:1017E0007B836A836A01590117019801241B350B19
:1017F00037FF03C0319521953109C5014A815B81CD
:10180000841B950B97FF03C091958195910951E039
:1018100059838217930714F019820BC09A2D8B2DD0
:101820005801092F182F9A818B81DB82CA82C92E19
:10183000D82E8A819B81A816B9065CF49C2D8D2D2B
:101840006801092F182F9A818B81BB82AA82A92E49
:10185000B82E2501AA81BB814A1A5B0A38016C188F
:101860007D0877FE03C0719461947108720157FE80
:1018700003C0BFEFEB1AFB0AF594E794C016D1063C
:101880001CF00FEF1FEF1FC001E010E01CC0D401DF
:10189000ED91FC91B9810484F585E02D9101BB2384
:1018A000C1F04A815B81B601C4010995E618F708C9
:1018B000F7FE04C0C00ED11EE40CF51CEA81FB81CA
:1018C0003196FB83EA834A815B81A416B506FCF658
:1018D00004C0A6016A817B81E7CF0F900F900F9023
:1018E000DF91CF911F910F91FF90EF90DF90CF90FC
:1018F000BF90AF909F908F907F906F905F904F9030
:101900003F902F90089585ED8093BC008091BC009E
:1019100084FDFCCF10925C0408954091F201262FC3
:1019200030E0240F311D21323105DCF420915C04BC
:101930002430C9F4FC0180E090E0861758F430911F
:10194000F2012191DC01A053BE4FA30FB11D2C93D6
:101950000196F3CF8091F201680F6093F20180E06D
:10196000089581E0089582E00895089581E090E06F
:101970003091210220912002321710F480E090E093
:10198000919581959109089580912102909120026D
:10199000891730F48F5F8093210280E090E00895F2
:1019A0008FEF9FEF08958091200290E02091210217
:1019B000821B91090895CF92DF92EF92FF920F93CD
:1019C0001F93CF93DF937C01262F972F8A0180915D
:1019D0005D04882391F0C62FD72F6E01C40ED51E4B
:1019E000CC15DD0571F06991D701ED91FC91019065
:1019F000F081E02DC7010995F3CF642F822F0E945B
:101A00008D0CC801DF91CF911F910F91FF90EF9046
:101A1000DF90CF900895CF93DF931F92CDB7DEB7BD
:101A2000698320915D042223D1F020917F0420322C
:101A300040F021E030E0FC013383228380E090E03D
:101A400015C080915E04E82FF0E0E15AFB4F9981C8
:101A500090838F5F80935E0480937F0405C061E074
:101A6000CE0101960E948D0C81E090E00F90DF91F5
:101A7000CF910895089580E090E008950E94851C1C
:101A8000CF93DF93282F30E0F901E859FA4F849182
:101A9000F901E255FA4FD491F901E656FA4FC49193
:101AA000CC2391F081110E943703EC2FF0E0EE0F70
:101AB000FF1FE057FA4FA591B491EC91ED2381E01F
:101AC00090E021F480E002C080E090E0DF91CF91CF
:101AD0000895FC0181850E94400D21E0892B09F4C5
:101AE00020E0822F08951F93CF93DF93282F30E0BB
:101AF000F901E859FA4F8491F901E255FA4FD4916E
:101B0000F901E656FA4FC491CC23C9F0162F811182
:101B10000E943703EC2FF0E0EE0FFF1FEA57FA4F59
:101B2000A591B4918FB7F894111105C09C91ED2F38
:101B3000E095E92302C0EC91ED2BEC938FBFDF9190
:101B4000CF911F910895CF93DF9390E0FC01E25570
:101B5000FA4F2491FC01E656FA4F8491882361F1F3
:101B600090E0880F991FFC01E458FA4FC591D49179
:101B7000FC01EA57FA4FA591B491611109C09FB7D2
:101B8000F8948881209582238883EC912E230BC0C2
:101B9000623061F49FB7F8943881822F8095832357
:101BA0008883EC912E2B2C939FBF06C08FB7F8949F
:101BB000E8812E2B28838FBFDF91CF910895862F48
:101BC000642F0C94A30D8F929F92AF92BF92CF92ED
:101BD000DF92EF92FF926B017C010E9460034B0148
:101BE0005C01C114D104E104F104F1F00E9460032E
:101BF000DC01CB0188199909AA09BB09883E9340E9
:101C0000A105B10570F321E0C21AD108E108F1087D
:101C100088EE880E83E0981EA11CB11CC114D1046B
:101C2000E104F10419F7DDCFFF90EF90DF90CF9042
:101C3000BF90AF909F908F9008952FB7F8946091C8
:101C400018027091190280911A0290911B022FBF05
:101C500008951F920F920FB60F9211242F933F9366
:101C60008F939F93AF93BF93809118029091190225
:101C7000A0911A02B0911B023091170226E0230FA7
:101C80002D3720F40296A11DB11D05C029E8230FB0
:101C90000396A11DB11D2093170280931802909303
:101CA0001902A0931A02B0931B0280911C0290911A
:101CB0001D02A0911E02B0911F020196A11DB11D2F
:101CC00080931C0290931D02A0931E02B0931F02EA
:101CD000BF91AF919F918F913F912F910F900FBE28
:101CE0000F901F901895FC01808580FD04C082FB39
:101CF000882780F9089580E00895AF92BF92CF922F
:101D0000DF92FF920F931F93CF93DF93EC018885AF
:101D10008B7F8887E881F9810190F081E02DCE01E9
:101D20000995F82E988596959170891751F00E9423
:101D30001D0E6A837B838C839D83988582E089272F
:101D400023C00E941D0E0A811B812C813D815B01F5
:101D50006C01A01AB10AC20AD30A4E815F8160E009
:101D600070E0A416B506C606D70678F0988591707F
:101D7000F91659F00E941D0E6A837B838C839D8324
:101D8000988581E0892784608887888582FB8827F9
:101D900080F9DF91CF911F910F91FF90DF90CF904D
:101DA000BF90AF900895CF93DF93EC0169871886B9
:101DB000E881F9810190F081E02D0995882319F0DF
:101DC0008885836088870E941D0E6A837B838C834D
:101DD0009D83DF91CF9108951F920F920FB60F92BE
:101DE00011242F933F934F935F936F937F938F9320
:101DF0009F93AF93BF93EF93FF938091B900887F38
:101E0000803609F49CC068F5883209F45BC090F410
:101E1000803109F454C038F4882309F4F6C08830BE
:101E200009F44DC0F6C0883109F44CC0803209F481
:101E30005DC0EFC0803409F468C048F4803309F411
:101E400055C0883309F0E5C080935A04D8C0803566
:101E500009F44FC0883509F45DC0883409F0D9C051
:101E6000D6C0883909F4C7C0A8F4883709F467C018
:101E700038F4883609F463C0803709F460C0C9C0FB
:101E8000883809F4B8C0803909F45FC0803809F097
:101E9000C0C05BC0803B09F486C038F4803A09F4C6
:101EA00066C0883A09F47FC0B4C0803C09F4A7C07A
:101EB000883C09F4A4C0883B09F48AC0AAC0809178
:101EC000370410C09091590480915804981770F508
:101ED000E091590481E08E0F80935904F0E0E85CB2
:101EE000FB4F80818093BB0085EC86C080935A04B1
:101EF0008EC0E091590481E08E0F80935904809147
:101F0000BB00F0E0E85CFB4F808390915904809126
:101F100058046EC0E091590481E08E0F80935904FB
:101F20008091BB00F0E0E85CFB4F808380915B0414
:101F300081116DC081E08093360484EA61C083E042
:101F400080935C0410921602CFCF809116028032EB
:101F500008F051C0E091160281E08E0F80931602C6
:101F60008091BB00F0E0EA50FE4F8083BDCF85EC4E
:101F70008093BC0010925C0480911602803230F491
:101F8000E0911602F0E0EA50FE4F108260911602D6
:101F900070E0E091F401F091F50186EF91E0099590
:101FA0001092160236C084E080935C041092F30114
:101FB0001092F201E091F001F091F1010995809108
:101FC000F201811105C081E08093F2011092D001ED
:101FD000E091F30181E08E0F8093F301F0E0E05394
:101FE000FE4F80818093BB009091F3018091F201BC
:101FF000981708F479CF85E88093BC000AC085EC77
:102000008093BC0010925C0404C010925A040E9499
:10201000830CFF91EF91BF91AF919F918F917F9131
:102020006F915F914F913F912F910F900FBE0F9045
:102030001F9018959F92AF92BF92CF92DF92EF922E
:10204000FF920F931F93CF93DF93CDB7DEB72C97FB
:102050000FB6F894DEBF0FBECDBF8C010E94D9131E
:10206000C8010E94B31361E084E40E944C1362E350
:1020700070E080E090E00E94E30D0E94D913C80157
:102080000E94B31360E08EEB0E944C13DE011196A8
:1020900062E070E000E110E096E6E92EF12C2AE023
:1020A000B22EBA0E48E050E031E020E0A090AA0441
:1020B000E091AB04F091AC04F89491819A2991835A
:1020C000D2809A2C9094D920D282CB010197F1F73B
:1020D000D180992D9D219183C8010197F1F79081BD
:1020E0007894F7013197F1F78A2D892309F0232B92
:1020F000330F41505109D1F62D93BA12D3CF6A81D3
:1021000070E0762F66278981682B072E000C880BDC
:10211000990B0E94361B20E030E040E85DE30E940E
:10212000EB1B2C960FB6F894DEBF0FBECDBFDF9130
:10213000CF911F910F91FF90EF90DF90CF90BF90C4
:10214000AF909F90089520917F049091E6042132F2
:1021500008F04AC080915C048111FCCF32E03093DA
:102160005C0431E030935B043FEF30935A041092EB
:10217000590420935804AFE5B4E048E354E0FA0171
:102180003E2F341B321718F43D913193F9CF109242
:10219000370420913704990F922B90933704909134
:1021A0003604913061F41092360490913704909384
:1021B000BB009091BC0093FDF8CF95EC01C095EE6B
:1021C0009093BC0090915C049230E1F390915A049A
:1021D0009F3F79F080915A04803241F080915A04F7
:1021E000803331F084E005C081E003C082E001C0AB
:1021F00083E010925E0410927F0410925D040895B3
:102200009091D904992339F08EBD00000DB407FEDA
:10221000FDCF8EB5089528E030E040E8E091DC0481
:10222000F091DD0450819091E30490959523908383
:10223000E091DA04F091DB049091E204542F5823EA
:1022400019F05081952B03C0508190959523908370
:10225000E091DC04F091DD0450819091E304952B32
:102260009083469521503109C9F60895009769F089
:10227000FC0101900020E9F73197AF01481B590B91
:10228000BC0188EB94E00C940C0380E090E008958E
:102290008F929F92AF92BF920F931F93CF93DF9332
:1022A000CDB7DEB7A1970FB6F894DEBF0FBECDBF96
:1022B00019A2423008F44AE08E010F5D1F4F842EB0
:1022C000912CA12CB12CA50194010E945D1CE62F3C
:1022D000B901CA0101501109EA3014F4E05D01C0EE
:1022E000E95CD801EC93232B242B252B61F7C80143
:1022F0000E943611A1960FB6F894DEBF0FBECDBF77
:10230000DF91CF911F910F91BF90AF909F908F90D1
:102310000895CF93DF930E943611EC0180EC91E099
:102320000E9436118C0F9D1FDF91CF910895E0918F
:10233000B804F091B9040190F081E02D682F88EB8A
:1023400094E009944F925F926F927F928F929F9246
:10235000AF92BF92CF92DF92EF92FF926B017C011E
:10236000B42E9B01AC010E94581C882319F083EC09
:1023700091E027C026013701E89477F82FEF3FEF6F
:102380004FE75FE7C301B2010E94581C81110DC0E5
:102390002FEF3FEF4FE75FE7C301B2010E948E1AB4
:1023A00018161CF487EC91E00CC02FEF3FEF4FE7BD
:1023B0005FE4C701B6010E94E61B181684F48BEC9B
:1023C00091E0FF90EF90DF90CF90BF90AF909F9003
:1023D0008F907F906F905F904F900C9436112FEFFD
:1023E0003FEF4FE75FECC701B6010E948E1A87FDF1
:1023F000E6CF20E030E0A901C701B6010E948E1AA5
:1024000087FF09C08DE20E9497114C01F7FAF09402
:10241000F7F8F09402C0812C912CA12C60E070E0C0
:1024200080E09FE3AB1441F020E030E040E251E473
:102430000E94931AA394F6CF9B01AC01C701B60189
:102440000E94221A2B013C010E94051B6B017C019A
:102450000E94341B9B01AC01C301B2010E94211AEE
:102460002B013C014AE0C701B6010E9448117C01E2
:10247000E80CF91CBB2029F08EE20E949711E80EAF
:10248000F91EDB2CDD2021F120E030E040E251E4B8
:10249000C301B2010E94EB1B2B013C010E94051BF2
:1024A0004B01A12CB12C4AE0C501B4010E94481196
:1024B000E80EF91EC501B4010E94341B9B01AC015A
:1024C000C301B2010E94211A2B013C01DA94DACF38
:1024D000C701FF90EF90DF90CF90BF90AF909F909B
:1024E0008F907F906F905F904F900895CF93C82FFB
:1024F0008091D4048F3F59F1E091DE04F091DF0424
:1025000080819091E404982B9083E091E004F09115
:10251000E10420819091E504909592239083E091CD
:10252000DE04F091DF0420819091E40490959223E1
:1025300090838C2F0E940011E091DE04F091DF0463
:1025400090818091E404892B8083CF9108958091BC
:10255000D20491E090935D048093E60410925E04AF
:1025600010927F0460E080E894E00E940B0D6C2FD5
:1025700080E894E00E940B0DCF910C94A310EF9291
:10258000FF920F931F93CF93DF9381E20E94761205
:1025900080E00E9476128FE70E94761282E20E940B
:1025A000761280E00E94761283E00E94761280917B
:1025B000D4048F3F79F1E091DE04F091DF04908143
:1025C0008091E404892B8083E091E004F091E104A0
:1025D00090818091E504892B8083E091DE04F09165
:1025E000DF0490818091E404809589238083C6E391
:1025F000D2E089910E94001184E0C633D807C9F760
:10260000E091DE04F091DF0490818091E404892B55
:10261000808330C0F090B8008CE08093B800C6E3AF
:10262000D2E0EE24E3948091D204E0925D048093A2
:10263000E60410925E0410927F0460E480E894E067
:102640000E940B0D00E010E0FE01E00FF11F608121
:1026500080E894E00E940B0D0F5F1F4F00311105C1
:1026600099F70E94A310609684E0C633D807D9F684
:10267000F092B800DF91CF911F910F91FF90EF90F2
:10268000089580E092E0E6E3F2E0DF019C011D9214
:1026900021503040E1F70895AF92BF92CF92DF9280
:1026A000EF92FF920F931F93CF93DF9328E030E0D8
:1026B00041E09EE7A92EB12CC6E0D0E000E110E099
:1026C0005AE6E52EF12C9091AA04E091AB04F0912A
:1026D000AC04592F5095742F782381F0F8947281AF
:1026E000572352835181592B5183D8011197F1F708
:1026F0005281952B92837894F7010FC0F8947281E0
:10270000572352835181592B5183D5011197F1F7EA
:102710005281952B92837894FE013197F1F7440F03
:102720002150310981F6611113C0F894E091AB0496
:10273000F091AC0491818091AA04809598239183B3
:10274000E091AB04F091AC04928189238283789468
:10275000DF91CF911F910F91FF90EF90DF90CF907D
:10276000BF90AF900895EF92FF920F931F93CF9376
:10277000DF931F92CDB7DEB7182F60E085E5998310
:102780000E944C13E12E9981F92E8701085F1F4F9B
:1027900060E0F70181917F010E944C13E016F10681
:1027A000B9F70F90DF91CF911F910F91FF90EF90AC
:1027B00008959091AA04E091AB04F091AC04F894D0
:1027C0008181292F20958223818378948DE7815000
:1027D00009F130813923D9F3F894828182238283ED
:1027E0008181892B81837894ACEBB3E01197F1F769
:1027F000F894818128232183A8E8B0E01197F1F7AC
:102800008081982381E009F080E07894E0E3F3E0B0
:102810003197F1F70895789484B5826084BD84B5CA
:10282000816084BD85B5826085BD85B5816085BDCB
:1028300080916E00816080936E0010928100809183
:10284000810082608093810080918100816080930B
:102850008100809180008160809380008091B10030
:1028600084608093B1008091B00081608093B0005B
:1028700080917A00846080937A0080917A008260EF
:1028800080937A0080917A008E7F80937A00809185
:102890007A00806880937A001092C10082E0809371
:1028A000D3048CE38093D2048091D4048F3F09F445
:1028B000BDC061E08091D6040E94A30D61E08091CB
:1028C000D8040E94A30D8091D804082E000C990B07
:1028D000FC01E656FA4FE491F0E0EE0FFF1FEA57D5
:1028E000FA4F259134913093DF042093DE04FC01EC
:1028F000E255FA4FE491E093E4048091D604082E67
:10290000000C990BFC01E656FA4FE491F0E0EE0F53
:10291000FF1FEA57FA4F259134913093E104209339
:10292000E004FC01E255FA4FE491E093E504809164
:10293000D90481113EC061E08091D4040E94A30DAE
:1029400061E08091D5040E94A30D8091D504082EEA
:10295000000C990BFC01E656FA4FE491F0E0EE0F03
:10296000FF1FEA57FA4F259134913093DD042093ED
:10297000DC04FC01E255FA4FE491E093E30480911A
:10298000D404082E000C990BFC01E656FA4FE49192
:10299000F0E0EE0FFF1FEA57FA4F25913491309384
:1029A000DB042093DA04FC01E255FA4FE491E09352
:1029B000E2048091D904882309F45FC0CFB7F8946A
:1029C00080912202811127C0E4EAF5E08491E8EBCE
:1029D000F5E09491E82FF0E0EE0FFF1FE458FA4F76
:1029E000A591B491EC91E92321F461E08AE00E9481
:1029F000730D61E08AE00E94A30D8CB580618CBDEF
:102A00008CB580648CBD61E08DE00E94A30D61E017
:102A10008BE00E94A30D809122028F5F809322029F
:102A2000CFBF80E58CBD81E08DBD27C01092210213
:102A30001092200210925E0410927F0410925C04A7
:102A400081E080935B041092360461E082E10E9491
:102A5000730D61E083E10E94730D8091B9008E7F58
:102A60008093B9008091B9008D7F8093B90080E296
:102A70008093B80085E48093BC008091D70487FDE3
:102A80001EC061E00E94A30D61E08091D7040E9406
:102A9000730D61E070E080E090E00E94E30D60E083
:102AA0008091D7040E94730D6AE070E080E090E0AE
:102AB0000E94E30D61E08091D7040E94730D8EEABD
:102AC0000E94761285ED0E94761280E80E947612AE
:102AD00088EA0E9476128FE10E94761283ED0E94AE
:102AE000761280E00E94761280E40E9476128DE8D1
:102AF0000E94761284E10E94761280E20E94761291
:102B000080E00E94761281EA0E94761288EC0E9490
:102B100076128AED0E94761282E00E94761281E897
:102B20000E9476128FE80E94761289ED0E9476123A
:102B300081EF0E9476128BED0E94761280E40E9453
:102B4000761284EA0E94761286EA0E9476128EE25B
:102B50000E9476128FEA0E94761269E070E080EAA5
:102B600094E00E94D30EC5E0D0E0D093A704C093B8
:102B7000A60468E070E086E994E00E94D30ED0934A
:102B80009D04C0939C046AE070E08CE894E00E948D
:102B9000D30ED0939304C093920461E086E00E9428
:102BA000A30D61E086E00E94730D62E089E00E945F
:102BB000A30D62E088E00E94A30D62E08AE00E941B
:102BC000A30D60E08CE00E94A30D65E070E080E062
:102BD00090E00E94E30D05E011E0C8E0D0E0CE01F6
:102BE0000E940B1AF80181938F012196CC30D105F8
:102BF000B1F765E070E080E090E00E94E30D01E055
:102C000011E0C0E1D0E0CE010E940B1AF8018193DF
:102C10008F012196C431D105B1F78CE00E94400D9F
:102C2000892B19F41092230203C081E080932302C0
:102C300002E040E0A42E40E0B42E11E0C1E0D0E07C
:102C400053E0952E0E941D0E6B017C0180EA94E0FA
:102C50000E947D0E86E994E00E947D0E8CE894E04F
:102C60000E947D0E8091320290913302A091340235
:102C7000B0913502A7019601281B390B4A0B5B0B5B
:102C8000DA01C901883E9340A105B10530F1C09237
:102C90003202D0923302E0923402F092350281E1A6
:102CA00091E00E941A1060932E0270932F0280937D
:102CB0003002909331026AE070E080E090E00E9480
:102CC000E30D89E091E00E941A1060932A0270934C
:102CD0002B0280932C0290932D028CE894E00E94AA
:102CE000730E882329F0809129028F5F8093290237
:102CF00080912902811111C080EA94E00E94730E34
:102D000081111093280286E994E00E94730E8823B3
:102D100009F487C01092280284C08130A9F58091FF
:102D2000A80480FD16C08091240290912502A091F4
:102D30002602B0912702A7019601281B390B4A0BE6
:102D40005B0BDA01C901843F9140A105B10508F090
:102D500023C280919E0480FD64C0809124029091E2
:102D60002502A0912602B0912702A7019601281BF7
:102D7000390B4A0B5B0BDA01C901843F9140A10575
:102D8000B10508F028C24DC08230A9F58091A80491
:102D900080FD16C08091240290912502A091260208
:102DA000B0912702A7019601281B390B4A0B5B0B38
:102DB000DA01C901843F9140A105B10508F02AC29A
:102DC00080919E0480FD2DC0809124029091250267
:102DD000A0912602B0912702A7019601281B390B6A
:102DE0004A0B5B0BDA01C901843F9140A105B10593
:102DF00008F02FC216C0833081F480EA94E00E946C
:102E0000730E81111093000186E994E00E94730E05
:102E1000882339F01092000104C0843010F0109221
:102E2000290280912902811151C0809128021093BA
:102E3000CC04D093CB04C093CA04D093C904C093EC
:102E4000C8041092C5041092C4041092C7041092D2
:102E5000C604811117C08FE691E00E9489119092FB
:102E6000CC04D093CB04C093CA04D093C904C093BC
:102E7000C80460912E0270912F02809130029091CF
:102E8000310216C08CE791E00E9489119092CC0427
:102E9000D093CB04C093CA04D093C904C093C80490
:102EA00060912A0270912B0280912C0290912D0248
:102EB00041E00E94A21187EF0E9497118AE791E0FA
:102EC0000E9436110E94BF120E9441138091290274
:102ED0008130B1F58093CC04D093CB04C093CA0465
:102EE000D093C904C093C8041092C5041092C404BE
:102EF0001092C7041092C60488E891E00E948911DC
:102F00009092CC04D093CB04C093CA04D093C9044C
:102F1000C093C8046091050170910601809107017A
:102F20009091080141E00E94A21187EF0E94971141
:102F30008AE791E00E9436110E94BF120E9441135D
:102F4000809129028230B1F51093CC04D093CB0448
:102F5000C093CA04D093C904C093C8041092C50496
:102F60001092C4041092C7041092C60484E991E040
:102F70000E9489119092CC04D093CB04C093CA04D0
:102F8000D093C904C093C8046091010170910201FB
:102F9000809103019091040141E00E94A21187EF0A
:102FA0000E9497118AE791E00E9436110E94BF1299
:102FB0000E944113F090290243E0F4129CC0109348
:102FC000CC04D093CB04C093CA04D093C904C0935B
:102FD000C8041092C5041092C4041092C704109241
:102FE000C60481EA91E00E948911F092CC04D0934A
:102FF000CB04C093CA04D093C904C093C8048DEA1B
:1030000091E00E9436110E94BF120E9441138091EC
:103010000001813051F008F46AC0823009F06BC0C1
:10302000F09229028093000166C025E0C22E21E0C3
:10303000D22E38E0E32EF12CF60161916F01C70129
:103040000E94131AFFEFEF1AFF0A2CE0E216F104B8
:1030500099F765E070E080E090E00E94E30D81E088
:10306000C82E81E0D82E90E1E92EF12CF601619175
:103070006F01C7010E94131AFFEFEF1AFF0A24E144
:10308000E216F10499F765E070E080E090E00E94BC
:10309000E30D0093CC04D093CB04C093CA04D09327
:1030A000C904C093C8041092C5041092C4041092BD
:1030B000C7041092C60484EB91E00E94891100932A
:1030C000CC04D093CB04C093CA04D093C904C0935A
:1030D000C8048AEB91E00E9436110E94BF1260ED95
:1030E00077E080E090E00E94E30D0E94411310928F
:1030F00029020093000180912302C0902E02D090FB
:103100002F02E0903002F0903102209105013091C1
:10311000060140910701509108018823D1F0C701B1
:10312000B6010E94E61B87FD04C060E086E00E94B5
:10313000730D2091010130910201409103015091E2
:103140000401C701B6010E948E1A1816F4F061E05E
:1031500019C0C701B6010E94E61B87FD04C061E0EB
:1031600086E00E94730D209101013091020140918F
:10317000030150910401C701B6010E948E1A18166E
:1031800024F060E086E00E94730DA114B10409F4FC
:1031900059CD0E94000056CDC0922402D092250243
:1031A000E0922602F092270220E030E040E05FE368
:1031B00060910501709106018091070190910801CD
:1031C0000E94221A60930501709306018093070103
:1031D00090930801BECDC0922402D0922502E092C5
:1031E0002602F092270220E030E040E05FE36091A9
:1031F00005017091060180910701909108010E94DC
:10320000211A609305017093060180930701909342
:10321000080107CEC0922402D0922502E092260235
:10322000F092270220E030E040E05FE3609101018E
:103230007091020180910301909104010E94221A71
:103240006093010170930201809303019093040144
:10325000B7CDC0922402D0922502E0922602F092CD
:10326000270220E030E040E05FE3609101017091CF
:10327000020180910301909104010E94211A609340
:103280000101709302018093030190930401C9CD61
:10329000109283041092820488EE93E0A0E0B0E0E4
:1032A0008093840490938504A0938604B09387044C
:1032B0008DE291E090938104809380041092BB048E
:1032C0001092BA0420E830E03093BD042093BC048F
:1032D00080E290E09093BF048093BE043093C104D9
:1032E0002093C0049093C3048093C2041092CD0431
:1032F0001092C5041092C4041092C7041092C60420
:1033000081E08093CC042FEF3FEF3093CB042093E8
:10331000CA043093C9042093C8048093CE04109249
:10332000CF041092D1041092D00487E491E09093DE
:10333000B9048093B8048FEF8093D4048093D804A9
:103340008093D6048093D5048093D70460E085E011
:103350000E94A30DE3EBF5E0E491E093AA04EFE90A
:10336000F5E0E491F0E0EE0FFF1FE057FA4F859192
:1033700094919093AC048093AB041092B504109296
:10338000B7041092B604E5EBF4E0129284E0ED3A53
:10339000F807D9F72FE331E03093A1042093A0047C
:1033A0001092A2041092A3041092A4041092A504F7
:1033B0008AE090E09093A7048093A6041092A8045A
:1033C0001092A904309397042093960410929804C5
:1033D0001092990410929A0410929B0490939D0469
:1033E00080939C0410929E0410929F0430938D044D
:1033F00020938C0410928E0410928F0410929004EB
:1034000010929104909393048093920410929404E8
:10341000109295040895F999FECF92BD81BDF89A56
:10342000992780B50895262FF999FECF1FBA92BD2E
:1034300081BD20BD0FB6F894FA9AF99A0FBE019695
:1034400008955058BB27AA270E94391A0C94AC1B28
:103450000E949E1B38F00E94A51B20F039F49F3F6C
:1034600019F426F40C949B1B0EF4E095E7FB0C94E6
:10347000951BE92F0E94BD1B58F3BA17620773070B
:103480008407950720F079F4A6F50C94DF1B0EF461
:10349000E0950B2EBA2FA02D0B01B90190010C0164
:1034A000CA01A0011124FF27591B99F0593F50F47C
:1034B000503E68F11A16F040A22F232F342F4427D4
:1034C000585FF3CF469537952795A795F0405395CC
:1034D000C9F77EF41F16BA0B620B730B840BBAF09C
:1034E0009150A1F0FF0FBB1F661F771F881FC2F707
:1034F0000EC0BA0F621F731F841F48F4879577951B
:103500006795B795F7959E3F08F0B0CF9395880FD4
:1035100008F09927EE0F9795879508950E94711BE3
:1035200008F481E008950E94A71A0C94AC1B0E9435
:10353000A51B58F00E949E1B40F029F45F3F29F024
:103540000C94951B51110C94E01B0C949B1B0E9436
:10355000BD1B68F39923B1F3552391F3951B550BCC
:10356000BB27AA2762177307840738F09F5F5F4F56
:10357000220F331F441FAA1FA9F335D00E2E3AF095
:10358000E0E832D091505040E695001CCAF72BD0AD
:10359000FE2F29D0660F771F881FBB1F26173707FE
:1035A0004807AB07B0E809F0BB0B802DBF01FF2730
:1035B00093585F4F3AF09E3F510578F00C94951B5D
:1035C0000C94E01B5F3FE4F3983ED4F38695779527
:1035D0006795B795F7959F5FC9F7880F911D9695E9
:1035E000879597F90895E1E0660F771F881FBB1F45
:1035F000621773078407BA0720F0621B730B840BF2
:10360000BA0BEE1F88F7E09508950E94C51B88F05D
:103610009F5798F0B92F9927B751B0F0E1F0660F96
:10362000771F881F991F1AF0BA95C9F714C0B130D7
:1036300091F00E94DF1BB1E008950C94DF1B672F0F
:10364000782F8827B85F39F0B93FCCF38695779506
:103650006795B395D9F73EF49095809570956195EF
:103660007F4F8F4F9F4F0895E89409C097FB3EF41A
:1036700090958095709561957F4F8F4F9F4F9923BF
:10368000A9F0F92F96E9BB279395F695879577953D
:103690006795B795F111F8CFFAF4BB0F11F460FFFD
:1036A0001BC06F5F7F4F8F4F9F4F16C0882311F055
:1036B00096E911C0772321F09EE8872F762F05C069
:1036C000662371F096E8862F70E060E02AF09A9504
:1036D000660F771F881FDAF7880F9695879597F9F9
:1036E0000895990F0008550FAA0BE0E8FEEF161693
:1036F0001706E807F907C0F012161306E407F507E6
:1037000098F0621B730B840B950B39F40A2661F059
:10371000232B242B252B21F408950A2609F4A140FC
:10372000A6958FEF811D811D089597F99F6780E809
:1037300070E060E008959FEF80EC089500240A9403
:103740001616170618060906089500240A9412167C
:103750001306140605060895092E0394000C11F4AF
:10376000882352F0BB0F40F4BF2B11F460FF04C05C
:103770006F5F7F4F8F4F9F4F089557FD9058440FB5
:10378000551F59F05F3F71F04795880F97FB991FC0
:1037900061F09F3F79F0879508951216130614067D
:1037A000551FF2CF4695F1DF08C01616170618060A
:1037B000991FF1CF86957105610508940895E894E5
:1037C000BB2766277727CB0197F908950E94711BC5
:1037D00008F48FEF08950E94FE1B0C94AC1B0E940E
:1037E0009E1B38F00E94A51B20F0952311F00C942D
:1037F000951B0C949B1B11240C94E01B0E94BD1B79
:1038000070F3959FC1F3950F50E0551F629FF00133
:10381000729FBB27F00DB11D639FAA27F00DB11D4C
:10382000AA1F649F6627B00DA11D661F829F2227D5
:10383000B00DA11D621F739FB00DA11D621F839F5C
:10384000A00D611D221F749F3327A00D611D231F32
:10385000849F600D211D822F762F6A2F11249F5780
:1038600050409AF0F1F088234AF0EE0FFF1FBB1F83
:10387000661F771F881F91505040A9F79E3F510542
:1038800080F00C94951B0C94E01B5F3FE4F3983E92
:10389000D4F3869577956795B795F795E7959F5FEC
:1038A000C1F7FE2B880F911D9695879597F908957E
:1038B0000E94711B880B990B0895A1E21A2EAA1B76
:1038C000BB1BFD010DC0AA1FBB1FEE1FFF1FA217D0
:1038D000B307E407F50720F0A21BB30BE40BF50BCD
:1038E000661F771F881F991F1A9469F76095709556
:1038F000809590959B01AC01BD01CF010895EE0F1D
:10390000FF1F0590F491E02D099481E090E0F89478
:083910000C948A1CF894FFCF0F
:10391800020000A6420000B44228FF8FDAA4150373
:103928006F28FF5381A415035C000103070F1F3F95
:103938007F0080C0E0F0F8FCFE000000000B0DDB0B
:103948000C3B0DB50CD30CC40CB60C000000006980
:103958000DDF0D0000000005090C033B0D3A0D3B7F
:1039680006D80BD10BA90BC50BB90BD90BA80BDAD1
:1039780006D9068503DF04CF0AB10A3A0ADB0957DC
:10398800415445522054454D50004300454E474947
:103998004E452054454D500046414E204F4E205430
:1039A800454D500046414E204F46462054454D5007
:1039B800005341564520504152414D3F005945530F
:1039C8002D555000504152414D0053415645440039
:1039D8000D0A006E616E00696E66006F7666000003
:107800000C94343C0C94513C0C94513C0C94513CE1
:107810000C94513C0C94513C0C94513C0C94513CB4
:107820000C94513C0C94513C0C94513C0C94513CA4
:107830000C94513C0C94513C0C94513C0C94513C94
:107840000C94513C0C94513C0C94513C0C94513C84
:107850000C94513C0C94513C0C94513C0C94513C74
:107860000C94513C0C94513C11241FBECFEFD8E036
:10787000DEBFCDBF11E0A0E0B1E0EAE8FFE702C063
:1078800005900D92A230B107D9F712E0A2E0B1E065
:1078900001C01D92AD30B107E1F70E942D3D0C945F
:1078A000C33F0C94003C982F95959595959595958B
:1078B000905D8F708A307CF0282F295A8091C0000B
:1078C00085FFFCCF9093C6008091C00085FFFCCF60
:1078D0002093C6000895282F205DF0CF982F809127
:1078E000C00085FFFCCF9093C6000895EF92FF92F1
:1078F0000F931F93EE24FF2487018091C00087FD22
:1079000017C00894E11CF11C011D111D81E2E8164D
:1079100081EAF80687E0080780E0180770F3E09135
:107920000401F091050109958091C00087FFE9CF1E
:107930008091C6001F910F91FF90EF9008950E94D3
:10794000763C982F8091C00085FFFCCF9093C600B5
:1079500091362CF490330CF09053892F089597555D
:10796000892F08951F930E949F3C182F0E949F3CCF
:107970001295107F810F1F9108951F93182F882350
:1079800021F00E94763C1150E1F71F9108951F935A
:10799000182F0E94763C803249F0809103018F5F5E
:1079A000809303018530C1F01F9108958091C0003C
:1079B00085FFFCCF84E18093C6008091C00085FFE5
:1079C000FCCF1093C6008091C00085FFFCCF80E102
:1079D0008093C6001F910895E0910401F091050184
:1079E00009951F9108950E94763C803241F0809164
:1079F00003018F5F80930301853081F008958091AA
:107A0000C00085FFFCCF84E18093C6008091C00058
:107A100085FFFCCF80E18093C6000895E0910401CA
:107A2000F09105010995089548EC50E08823A1F0F4
:107A30002D9A28EE33E0FA013197F1F721503040CA
:107A4000D1F72D9828EE33E0FA013197F1F7215064
:107A50003040D1F7815061F708953F924F925F9285
:107A60006F927F928F929F92AF92BF92CF92DF924E
:107A7000EF92FF920F931F93CF93DF93000082E06A
:107A80008093C00080E18093C4001092C50088E11B
:107A90008093C10086E08093C2005098589A259A3E
:107AA00081E00E94143D24E1F22E9EE1E92E85E959
:107AB000D82E0FE0C02E10E1B12EAA24A394B1E479
:107AC0009B2EA6E58A2EF2E57F2EE0E26E2E79E46B
:107AD000572E63E5462E50E5352E0E94763C8033C6
:107AE000B1F18133B9F1803409F46FC0813409F404
:107AF00076C0823409F485C0853409F488C08035A5
:107B000031F1823521F1813511F1853509F485C0D6
:107B1000863509F48DC0843609F496C0843709F49B
:107B200003C1853709F472C1863709F466C08091B4
:107B300003018F5F80930301853079F6E0910401A2
:107B4000F091050109950E94763C803351F60E9420
:107B5000F33CC3CF0E94763C803249F78091C0004D
:107B600085FFFCCFF092C6008091C00085FFFCCF5E
:107B70009092C6008091C00085FFFCCF8092C60025
:107B80008091C00085FFFCCF7092C6008091C0003C
:107B900085FFFCCF6092C6008091C00085FFFCCFBE
:107BA0005092C6008091C00085FFFCCF4092C60075
:107BB0008091C00085FFFCCF3092C6008091C0004C
:107BC00085FFFCCFB092C60088CF0E94763C8638F5
:107BD00008F4BDCF0E94763C0E94F33C7ECF0E9409
:107BE000763C803809F49CC0813809F40BC1823896
:107BF00009F430C1883909F48FC080E00E94C73C85
:107C00006CCF84E10E94BD3C0E94F33C66CF85E0CE
:107C10000E94BD3C0E94F33C60CF0E94763C809362
:107C200006010E94763C809307010E94F33C55CFE9
:107C30000E94763C803309F411C183E00E94BD3C70
:107C400080E00E94C73C49CF0E94763C80930902A5
:107C50000E94763C8093080280910C028E7F809374
:107C60000C020E94763C853409F409C18091080217
:107C700090910902892B89F000E010E00E94763C87
:107C8000F801E85FFE4F80830F5F1F4F809108026D
:107C9000909109020817190788F30E94763C8032F8
:107CA00009F045CF80910C0280FFF5C0609106017C
:107CB00070910701660F771F7093070160930601AB
:107CC000A0910802B09109021097C9F0E8E0F1E034
:107CD0009B01AD014E0F5F1FF999FECF32BD21BD53
:107CE000819180BDFA9AF99A2F5F3F4FE417F5070B
:107CF00099F76A0F7B1F70930701609306018091CB
:107D0000C00085FFFCCFF092C6008091C00085FFC7
:107D1000FCCFB092C600E1CE83E00E94C73CDDCE2E
:107D200082E00E94C73CD9CE0E94763C8093090233
:107D30000E94763C80930802809106019091070191
:107D4000880F991F90930701809306010E94763C4B
:107D5000853409F49AC080910C028E7F80930C02C6
:107D60000E94763C803209F0B8CE8091C00085FF39
:107D7000FCCFF092C600A0910802B09109021097C2
:107D8000C1F180910C02082F0170182F1695117007
:107D9000E0910601F0910701AF014F5F5F4FBA011B
:107DA00020E030E00023B1F4112339F49491809164
:107DB000C00085FFFCCF9093C6002F5F3F4FCB01E3
:107DC0000196FA012A173B0780F4BC014F5F5F4F11
:107DD000002351F3F999FECFF2BDE1BDF89A90B5B9
:107DE0008091C00085FFFCCFE6CF709307016093C0
:107DF00006018091C00085FDE5CE8091C00085FF21
:107E0000F8CFE0CE81E00E94C73C67CE0E94763C6E
:107E1000803209F08CCE8091C00085FFFCCFF092BB
:107E2000C6008091C00085FFFCCFE092C600809123
:107E3000C00085FFFCCFD092C6008091C00085FFB6
:107E4000FCCFC092C6008091C00085FFFCCFB092ED
:107E5000C60043CE80E10E94C73C3FCE0E94763CE4
:107E60000E94763C182F0E94763C112309F483C0AF
:107E7000113009F484C08FE00E94C73C2ECE80915F
:107E80000C02816080930C02F1CE80910C02816023
:107E900080930C0265CF809107018823880F880B9F
:107EA0008A2180930B028091060190910701880F2F
:107EB000991F90930701809306018091080280FF2B
:107EC00009C08091080290910902019690930902DD
:107ED00080930802F894F999FECF1127E0910601EA
:107EE000F0910701C8E0D1E0809108029091090269
:107EF000103091F40091570001700130D9F303E084
:107F000000935700E8950091570001700130D9F3B4
:107F100001E100935700E8950990199000915700EE
:107F200001700130D9F301E000935700E8951395F3
:107F3000103498F011270091570001700130D9F3E7
:107F400005E000935700E89500915700017001305B
:107F5000D9F301E100935700E8953296029709F0B2
:107F6000C7CF103011F00296E5CF11248091C000E8
:107F700085FFC5CEC8CE8EE10E94C73CAECD85E957
:0A7F80000E94C73CAACDF894FFCF81
:027F8A00800075
:040000030000780081
:00000001FF
